:0300000002175391
:03004300021500A3
:03004B0002137F1E
:10110000907FE9E0245D600D147003021244240214
:10111000600302124A907FEAE0750800F509A3E037
:10112000FEE42509F509EE3508F508907FEEE07537
:101130000A00F50BA3E0FEE4250BF50BEE350AF5EE
:101140000A907FE8E064C060030211D4E50B450A11
:10115000700302124AC3E50B9440E50A940050085C
:10116000850A0C850B0D8006750C00750D40907F6F
:10117000E9E0B4A325AE0CAF0DAA08A9097B01C014
:1011800003C002C0017A7F790078007C7FAD03D074
:1011900001D002D003121356800FAF09AE08AD0D77
:1011A0007A7F79007B001215A4907FB5E50DF0E5FC
:1011B0000D2509F509E50C3508F508C3E50B950D76
:1011C000F50BE50A950CF50A907FB4E020E20302E6
:1011D000114C80F4907FE8E06440706EE50B450AA6
:1011E0006068E4907FC5F0907FB4E020E3F9907FE1
:1011F000C5E0750C00F50D907FE9E0B4A315AE0CC9
:10120000AF0DA809AC087D017B017A7E79C012136D
:1012100056800FAF09AE08AD0D7A7F79007B0012C2
:1012200014B9E50D2509F509E50C3508F508C3E500
:101230000B950DF50BE50A950CF50A907FB4E0448B
:1012400002F08098907FEAE0F51C22BB010CE58259
:1012500029F582E5833AF583E0225006E92582F8F4
:10126000E622BBFE06E92582F8E222E58229F58224
:10127000E5833AF583E49322F8BB010DE58229F575
:1012800082E5833AF583E8F0225006E92582C8F624
:1012900022BBFE05E92582C8F222E709F608DFFA3B
:1012A0008046E709F208DFFA803E88828C83E709EE
:1012B000F0A3DFFA8032E309F608DFFA806EE30973
:1012C000F208DFFA806688828C83E309F0A3DFFAF4
:1012D000805A89828A83E0A3F608DFFA804E8982E9
:1012E0008A83E0A3F208DFFA804280D280FA80C6C7
:1012F00080D4805580F28029801080A680EA809A70
:1013000080A880DA80E280CA802988848C858982DE
:101310008A83E493A30586F0A30586DFF5DEF380D8
:101320000B89828A83E493A3F608DFF9ECFAA9F02B
:10133000EDFB2288848C8589828A83E0A30586F070
:10134000A30586DFF6DEF480E389828A83E493A333
:10135000F208DFF980D688F0ED2402B4040050CC06
:10136000F582EB2402B4040050C223234582F582A7
:10137000EF4E60B8EF60010EE582239012EA73C071
:10138000E0C083C082C085C084C086758600C0D09E
:1013900075D000C000C001C002C003C006C00790E5
:1013A0007FA5E030E206751B0602144E907FA5E093
:1013B00020E10CE51B64026006751B0702144EAFAA
:1013C0001BEF24FE604814602C24FE607724046028
:1013D0000302144EAB17AA18A919AF1A051A8F8267
:1013E00075830012124B907FA6F0E51A6516705EA9
:1013F000751B058059907FA6E0AB17AA18A919AEF6
:101400001A8E82758300121278751B028040E516D1
:1014100024FEB51A07907FA5E04420F0E51614B528
:101420001A0A907FA5E04440F0751B00907FA6E06B
:10143000AB17AA18A919AE1A8E82758300121278FA
:10144000051A800A907FA5E04440F0751B00539177
:10145000DFD007D006D003D002D001D000D0D0D04A
:1014600086D084D085D082D083D0E032C200907FF5
:10147000A5E05418FF131313541F4450F51C139286
:1014800001D2E8907FAB74FFF0907FA9F0907FAA23
:10149000F05391EF907F95E044C0F0907FAFE0442F
:1014A00001F0907FAEE04405F0D2AF12175F30003C
:1014B000FD121100C20080F6228E0E8F0F8D108A51
:1014C000118B12E4F513E513C395105020050FE5B9
:1014D0000FAE0E7002050E14FFE5122513F582E41F
:1014E0003511F583E0FD121558051380D9227400DB
:1014F000F58690FDA57C05A3E582458370F922322F
:1015000002166E0002169500021644000216DF0055
:101510000216BA000214FF000217670002176800E3
:101520000217690002176A0002176B0002176C00AD
:1015300002176D0002176E0002176F00021770008D
:10154000021771000217720002177300021774006D
:101550000217750002177600AB07AA06AC05E4FD7A
:10156000300111EAFFAE050DEE2400F582E434E00F
:10157000F583EFF0EBAE050D74002EF582E434E058
:10158000F583EBF0AF050D74002FF582E434E0F540
:1015900083ECF0AF1C7AE07B001217207F0A7E00FC
:1015A00012173C228E0E8F0F8D108A118B12E4FDC4
:1015B000300112E50EFFAE050DEE2403F582E43492
:1015C000E0F583EFF0E50FAE050D74032EF582E430
:1015D00034E0F583E50FF0AF1C7AE07B03121720AF
:1015E000AF1CAD10AB12AA1112170422A907E51BFC
:1015F0007025907FA5E04480F0E925E04401907FCC
:10160000A6F08D16AF03A9077517018A188919E48A
:10161000F51A751B03D322C322A907E51B7023907B
:101620007FA5E04480F0E925E0907FA6F08D16AF1D
:1016300003A9077517018A188919E4F51A751B01A2
:10164000D322C322C0E0C083C082C085C084C086CC
:10165000758600907FC4E4F05391EF907FAB7404E3
:10166000F0D086D084D085D082D083D0E032C0E064
:10167000C083C082C085C084C086758600D20053F6
:1016800091EF907FAB7401F0D086D084D085D0826A
:10169000D083D0E032C0E0C083C082C085C084C0A7
:1016A000867586005391EF907FAB7402F0D086D0A0
:1016B00084D085D082D083D0E032C0E0C083C082A5
:1016C000C085C084C0867586005391EF907FAB744F
:1016D00010F0D086D084D085D082D083D0E032C0C4
:1016E000E0C083C082C085C084C0867586005391E7
:1016F000EF907FAB7408F0D086D084D085D082D0B4
:1017000083D0E0321215ECE51B24FA600E1460065B
:10171000240770F3D322E4F51BD322E4F51BD32274
:10172000121619E51B24FA600E146006240770F3E4
:10173000D322E4F51BD322E4F51BD3228E148F159C
:10174000E5151515AE14700215144E60051214EE51
:1017500080EE22787FE4F6D8FD75812002146CE4D7
:10176000F51BD2E9D2AF2232323232323232323249
:071770003232323232323214
:00000001FF
