:030000000201E317
:03000B00020A5A8C
:03001B00020AAA2C
:03003300020B17A6
:03004300020100B7
:03005B00020B1B7A
:03006300020B3855
:10010000020B54FF020B9DFF020B77FF020BFDFF5A
:10011000020BBEFF020BFCFF020C28FF020C29FFA2
:10012000020C2AFF020C2BFF020C2CFF020C2DFFED
:10013000020C2EFF020C2FFF020C30FF020C31FFCD
:10014000020C32FF020C33FF020C34FF020C35FFAD
:10015000020C36FF020C3712010001000000404E75
:100160000A0110030100000002090235000101002C
:10017000C0C80904000005FF000000070502034095
:100180000001070582034000010705040340000148
:100190000705060308000107058603080001090298
:1001A0001900010100C0140904000001FF00000053
:1001B000070502034000010403090412035500531C
:1001C00000420020004D00690064006900140349EA
:1001D000006E0074006500720066006100630065D7
:1001E00000000075816FE4F56AC244F56EF56DC2DA
:1001F00047C248C249756800758600C2AFC2D3C203
:10020000D4C2D3C2D4C2ACC2AE12121BC230C231ED
:10021000C233C242907F92E4F0907FA17401F090CB
:100220007FDEE0D2E2D2E6F0907FDFE0D2E2D2E4FD
:10023000D2E6F0907FAFE0D2E0F0907FB9E4F090AA
:100240007FC1E4F0900C5DE5838582F0907FB2F091
:10025000A3E5F0F043D820907FAB74FFF0907F953A
:10026000E044C0F0907FAFE04401F0E4F523F524D2
:10027000F525C23BC23CC23DC243907F94E044801E
:10028000F075CAFE75CBFFE58EC2E5F58EE5C85464
:1002900000F5C8D2CAE58EC2E0C2E1C2E2F58E9096
:1002A0007FACE0C2E2C2E6F0907FADE0F0E4F8247B
:1002B000E0C8D2E7F6C2E704B4100040F1754E0082
:1002C000907FAEE0441DF0D2E8D2AF203343907F60
:1002D000D6E054FBF0E04408F0E04402F07FDC7E1E
:1002E00005120A0C907FAB74FFF0907FA9F0907F0D
:1002F000AAF05391EF907FD6E054F7F0E04404F079
:100300007F107E007D00203308DDFBDEF9DFF78003
:10031000BA758C38758A38E58954F24402F589E556
:1003200088F588E58EC2E3F58ED2A9758D46758B6A
:1003300046E589542F4420F589E58EC2E4F58E7593
:100340004A03D2B9D2AB907F94E0C2E4F0907F9799
:10035000E0C2E4F01214D112146290FE0074C9F0ED
:10036000A3EFF0A3E4F030330512075EC233303060
:1003700017120A2E5012C230120A30203107907F15
:10038000D6E020E7F3120A40304205C2421212C8FA
:10039000303403120D17303503120D6DE54C54FF48
:1003A00075670074C82567F8E6F521C23EC23FE8CC
:1003B0002408F8E6F569B521004007852169F52193
:1003C000D23EE52170030205B1C208200C15300AA7
:1003D000030204523009030204FD300B03020551ED
:1003E0000205B1AD67ED232323FE904045E582541D
:1003F000C74EF582E020E5030205B1E567303E0215
:100400002408FA908000E5832AF58374982AF8245A
:1004100018F9E6F582677005D23F02059906E0C338
:100420004008FF0582E0F5F0E7967011D23F90405A
:1004300040E58254C74EF582EFF0020599904040A6
:10044000E58254C74EF582EFF020F7030205B102B2
:100450000536AD67ED232323FE904045E58254C762
:100460004EF582E020E5030205B1E567303E022447
:1004700008FA908000E5832AF58374982AF82418F6
:10048000F9E6F582677005D23F02059906E0C340A0
:1004900008FF0582E0F5F0E7967002D23FEFB4F86E
:1004A00000501D74D82567F8EFB4F004D20D800F0A
:1004B00054F0B4F005C20DE48005E66F6020EFF65D
:1004C000904040E58254C74EF582EFF0303F030282
:1004D000059920F761D20CC20AC20B020599303F80
:1004E0000302059920F74FD20CC20AC20B74C8252B
:1004F00067303E022408F8E521F60203E3E56730A1
:100500003E022408FA908000E5832AF58374982A35
:10051000F82418F98682E0F5640582E0F563C2A943
:10052000C3E54F9563E5509564D2A930E503020514
:100530008E0606020568E5F0B4F40706752102028E
:100540000587B4F706752124020599752104020573
:1005500087E567303E022408FA908000E5832AF59B
:100560008374982AF82418F9E6677005D23F0205CB
:1005700099C23F8682E0F5F0C20B20E7B9D20CC2E7
:100580000A1205BC0203A3C2081205BCC23FB23E58
:10059000E569852169F521D208303F06E52154201F
:1005A000F52174C82567303E022408F8E521F6805D
:1005B000000567E567640860110203A374C8256736
:1005C000303E022408F8E521F622907FC0E020E1C9
:1005D00003120C38907FD0E020E103120C4E907F84
:1005E000B8E020E103120693E56F6003120D84204A
:1005F000484C907FC8E020E145E591C2E4F5919038
:100600007FAA7404F0907FC9E0F5F054037027C20C
:100610004A907DC0E0C2E7FAA315F0E0FBA315F015
:10062000E0FCA315F0E0FDA3C083C0821210A8D0A7
:1006300082D083D5F0DEA24A9248907FC9F020494B
:100640000A907FCCE020E10312071B304815789810
:1006500079B0C248C3E796B4C9004002D24808093D
:10066000B8A0F130491578A079B8C249C3E796B46B
:10067000C9004002D2490809B8A8F10203669040B7
:1006800054E0A24892E1F0904064E0A24992E1F087
:10069000020366C2AFE4F54830373A30372A909803
:1006A00000E546F58204F546B54702C237E0C0E0F2
:1006B000E548907E00854882D0E0F00548D2AF0042
:1006C00000C2AFE548B440D3907FB9F05391EF90AA
:1006D0007FA97404F0D2AF225391EF907FAA7404E3
:1006E000F0907FC9E0F5F054037027C24A907DC0B6
:1006F000E0C2E7FAA315F0E0FBA315F0E0FCA315B8
:10070000F0E0FDA3C083C0821210A8D082D083D5B0
:10071000F0DEA24A9248907FC9F0225391EF907F79
:10072000AA7410F0907FCDE0F5F054037027C24A10
:10073000907CC0E0D2E7FAA315F0E0FBA315F0E04F
:10074000FCA315F0E0FDA3C083C0821210A8D082E4
:10075000D083D5F0DEA24A9249907FCDF022907FDF
:10076000E9E0B406051207AD803BB40A051207D3D1
:100770008033B40B051207E0802BB409051207E79C
:100780008023B408051207EE801BB400051207FB96
:100790008013B40105120910800BB403051209215E
:1007A0008003120932907FB4E04402F022907FEB84
:1007B000E0B401030207C6B40203020835B4030320
:1007C0000208BD0209F77401907FD4F07457907F3E
:1007D000D5F022907F00E538F0907FB57401F022CB
:1007E000907FEAE0F53822907FEAE0F53922907FA9
:1007F00000E539F0907FB57401F022907FE8E0B415
:100800008003020814B48103020935B4820302098B
:10081000430209F790405EE0A2E59232A231E43350
:1008200023FFA232E4334F907F00F0E4A3F0907FE7
:10083000B57402F022907FEAE0FFE4FE90405EE0B3
:1008400020E50C90017074C0F0A374C8F0800A9089
:10085000017074C0F0A37419F0753201753369AA80
:1008600032A9339000011209FF64027034EEFD0ECC
:100870008FF0B5F0030208A7900002E5822533F55A
:1008800082E5833532F583E493F5F0A3E493F53400
:1008900085F035E5352533F533E5343532F53280ED
:1008A000BE7B007A0079008A2E892FEA49600BEA24
:1008B000907FD4F0E9907FD5F0220209F7907FEA8B
:1008C000E0FF8F3AE4F53B7532017533B7AA32A9E0
:1008D000339000011209FFB4031EE53B053BB53A16
:1008E000030208FEAA32A9339000001209FF29FF73
:1008F000E43AF5328F3380D57B007A007900EA49FB
:10090000600BEA907FD4F0E9907FD5F0220209F7DE
:10091000907FE8E0B4000302096EB4020302097D8F
:1009200022907FE8E0B400030209BEB4020302098A
:10093000CD220209F7E4907F00F0A3F0907FB57418
:1009400002F022907FECE0F45480C4540FFFE05496
:10095000072F25E024B4F582E4347FF583E054FDCD
:10096000907F00F0E4A3F0907FB57402F022907FB6
:10097000EAE0B40104C23180031209F722907FEA51
:10098000E07037907FECE0F45480C4540FFFE054E3
:10099000072F25E024B4F582E4347FF583E4F0905A
:1009A0007FECE05480131313541FFFE054072F9083
:1009B0007FD7F0E04420F00209BD1209F722907FB2
:1009C000EAE0B40104D23180031209F722907FEAF1
:1009D000E07020907FECE0F45480FFC4540FFFE0FF
:1009E00054072F25E024B4F582E4347FF5837401A5
:1009F000F080031209F722907FB4E04401F022E571
:100A00008229F582E5833AF583E49322C086C08388
:100A1000C082C0E0E4F58690FDA5A3E58245837021
:100A2000F9D0E0D082D083D086DFE1DEDF22D3228E
:100A3000907FD6E04480F043870100000000002250
:100A4000907FD6E030E712E04401F07F147E001280
:100A50000A0C907FD6E054FEF022C0D0C0E0E54FF3
:100A60002401F54F502AE55004F55030E61FE8C048
:100A7000E078D876000876000876000876000876D8
:100A800000087600087600087600D0E0F853503F62
:100A9000E55E2553F55EE55D3552F55DE5513400C3
:100AA000F58CD0E0D0D032D0D032C0D0D54AF8C00A
:100AB000E0C083C082C086E4F586D2D4754A03FDC7
:100AC000856F23ED232323FE904045E58254C74ED6
:100AD000F582E030E02A5382F8E0FCED2410FA249D
:100AE00080F58374982AF82418F9E7F58204667073
:100AF00004D23B8005ECF0078000D2185002D23BB4
:100B00000DE52303F523BD08BA85236FD086D08277
:100B1000D083D0E0D0D03253D8EF32C0D0C083C021
:100B200082C0E0C08675860053917FD247D086D0C0
:100B3000E0D082D083D0D032C0D0C0E0C082C083A9
:100B4000C086758600D2D3C2DBD086D083D082D057
:100B5000E0D0D032C0D0C0E0C083C082C0867586ED
:100B600000D2335391EF907FAB7401F0D086D082E6
:100B7000D083D0E0D0D032C0D0C0E0C083C082C02B
:100B800086758600E4907FC4F05391EF907FAB743C
:100B900004F0D086D082D083D0E0D0D032C0D0C094
:100BA000E0C083C082C0867586005391EF907FAB12
:100BB0007402F0D086D082D083D0E0D0D032C0D0C2
:100BC000C0E0C083C082C086758600E4907FC7F015
:100BD000907FC9F0907FCBF0907FCDF0907FCFF0E9
:100BE000907FD1F0907FD3F05391EF907FAB741052
:100BF000F0D086D082D083D0E0D0D03232C0D0C006
:100C0000E0C083C082C086758600E52A6004152A8C
:100C10008002D2305391EF907FAB7408F0D086D031
:100C200082D083D0E0D0D0323232323232323232DD
:100C300032323232323232325391EF907FA97440E5
:100C4000F0907FC1E4F0907C00E582F54922539159
:100C5000EF907FAA7440F0907FD1E0F541D234222A
:100C6000C0D0C083C082C086758600C0E0E548B4AD
:100C700041004006D23CD0E0800B907E0085488247
:100C8000D0E0F00548D086D082D083D0D022C0D02A
:100C9000C083C082C0E0C086758600C0E0E549B46C
:100CA0004002D23B907C00854982D0E0F00549D0DB
:100CB00086D0E0D082D083D0D022C0D0C0F0C08314
:100CC000C082C086758600F5F0303609E545B5442A
:100CD00004D23B800D909900854582E5F0F0D23634
:100CE0000545D086D082D083D0F0D0D022C0D0C0ED
:100CF000E0C083C082C086758600909900E544F507
:100D000082E54404F544B54502C236E0D086D0827F
:100D1000D083D0E0D0D022907BC0E0F5851541A3F0
:100D2000E0F5841541A3E541700BD23585854285F8
:100D30008443020D66E0F90586E059F00586D54149
:100D400004D23B8021A3E0F90586E049F0A30586A3
:100D5000A3D541E190FE02E0600CF912149190FEDF
:100D600001E9F0A3E4F0C234907FD1F022C2AF8554
:100D70004283854382E0120C8E907FC17401F0C2E1
:100D800035D2AF227D00C2AB856F24756F00D2AB28
:100D9000ED2410302036C2ABFA908000E5832AF5AE
:100DA0008374982AF82418F9E6F582677007D3C28D
:100DB00020D2AB801706D220E0C0E0E667D2ABD2EB
:100DC000466002C246D0E08D3D120DE3E52503F5F5
:100DD00025E52403F5240DBD08B6C2AB456FF56FBC
:100DE000D2AB22F53E20E708202805120F618003D0
:100DF000120DFA303903120FB222900E05E53EC4EF
:100E0000540F0212030E250E250E250E250E250E5B
:100E1000250E250E250E300E390E420E4B0E540EA9
:100E20005D0E660E6F753C04753F02C228020F28E6
:100E3000753C08753F02020F28753C09753F020298
:100E40000F28753C0A753F02020F28753C0B753F51
:100E500002020F28753C0C753F01020F28753C0DEE
:100E6000753F01020F28753C0E753F02020F289056
:100E70000E79E53E540F0212030E990EA20EAB0E30
:100E8000B40EBD0EC60ED10EDC0F100F130F160FD1
:100E9000190F1C0F1F0F220F25753C04753F02020E
:100EA0000F28753C02753F01020F28753C03753F02
:100EB00002020F28753C02753F01020F28753C03A2
:100EC000753F02020F28D239753C0F753F00020FA3
:100ED00028D239753C0F753F00020F28D23990FF98
:100EE00010E582253DF582E030280BC228753C05CF
:100EF000753F00020F28700C753C06753F01120FFC
:100F00003F020F98753C07753F00120F3F020FA577
:100F100002105902105902105902105902105902B8
:100F2000105902105902105990FF00E582253DF535
:100F300082E53EF090FF10E582253DF582E4F090D9
:100F4000FF18E582253DF582E53FF090FF08E58238
:100F5000253DF582E53CF022753EFF120F98020F09
:100F6000A590FF18E582253DF582E0602AF53F90C7
:100F7000FF10E582253DF582E0F540C083C0827018
:100F800005120F988003120FA5E54004B53F03D268
:100F900039E4D082D083F02290FF20E582253DF510
:100FA00082E53EF02290FF28E582253DF582E53E70
:100FB000F022E53D6009AE3DE52223DEFDF522E5A8
:100FC0002230E025E53DC4440312140B74F41214DE
:100FD0000BC2ABC2A9E54FF56CE550F56BD2A9D2B7
:100FE000AB12140BE56C12140B90FF08E582253D43
:100FF000F582E0F5F0C0E0E53DC445F012140BE5E4
:10100000F0B40402C246E522A24692E0F522E53D94
:101010006009AE3DE52203DEFDF52290FF00E5828A
:10102000253DF582E012140B90FF20E582253DF569
:1010300082E012140B90FF28E582253DF582E01234
:10104000140B90FF10E582253DF582E4F0C239C211
:1010500028D0E0B40402D22822E53DC4440312148F
:101060000B74F412140BC2ABC3E54F9400F56CE59E
:10107000509400543FF56BD2AB12140BE56C121474
:101080000BE53DC4440F12140BE53E12140B74FF24
:1010900012140B74FF02140B00000317070103075F
:1010A0000707070703030709C245EAC4540FCA54D8
:1010B0000F90109893F520C2AF300353EBB4F910A2
:1010C000751900E5182401543FF518D24202115950
:1010D000EBB4FD2B907F9DE0D2E4E4C28CC28EC2C3
:1010E000AFF518F519F550F54F907F9DE0D2E4F07B
:1010F00012117712121BD28CD28ED2AF021159B4B8
:10110000F50D907F9DE0C2E4F01212160211599085
:101110008000E5832AF58374982AF82418F9C3E738
:1011200096B4C9004002D24A300009EBFF1213D036
:1011300072459245300109ECFF1213D07245924579
:10114000300209EDFF1213D07245924574C82AF897
:10115000E6541E7004E6D2E3F6D2AF22C0D0C083BC
:10116000C082C08675860090404CE0D2E0F0D08608
:10117000D082D083D0D022C2CA7F087E0090404364
:10118000E58254C74EF5827483F0904040E5825466
:10119000C74EF5827401F0904041E58254C74EF588
:1011A000827400F0904043E58254C74EF582740388
:1011B000F0904040E58254C74EF582E0904044E50F
:1011C0008254C74EF582E4F0EE2408FEDFAFD2CAA7
:1011D000E47F64D5E0FDDFFB22ED232323FE904076
:1011E00045E58254C74EF582E022904040E58254A6
:1011F000C74EF582E022904040E58254C74EF5820A
:10120000EFF022C0F023F5F093C5F00493F582854A
:10121000F083D0F0E473C28CC28E227565007566CF
:1012200000856563856664E4F51AF51BF51CF51DFC
:10123000F51EF51FF553F552755138F554F555F572
:1012400056F557F558F559F55AF55B756104756211
:1012500006F55DF55E752100756700E47F1078C8BE
:10126000F608DFFC78987930E4F608D9FCF546F505
:1012700047C237F544F545C236F541C234C235F5AB
:1012800041F548F5497522FF756F00790890FF0018
:10129000E4F0A3D9FC790878D8F608D9FC7908904D
:1012A000FF10F0A3D9FC790890FF18F0A3D9FC79BE
:1012B0000890FF20F0A3D9FC790890FF287400F073
:1012C000A3D9FAC228C23A22C2ABC2A9C3E5199572
:1012D0004FF51BE5189550543FD2A9D2AB30E5022B
:1012E00044C0F51C54FC600824046004E518E519AA
:1012F000756104756206E51C6005046011801C744C
:10130000C8B51B004015756109756208800D7437FA
:10131000B51B005006756109756208E51CF554A2FD
:10132000E59240851B55851A56755700AE61A2405F
:10133000E55413F554E55513F555E55613F556E503
:101340005713F557DEE8C3755B00E51A951DF55A8E
:10135000E51B951EF559E51C951FF558A2E5924031
:10136000851A1D851B1E851C1FAE62A240E5581301
:10137000F558E55913F559E55A13F55AE55B13F598
:101380005BDEE8E5532556F553E5523555F552E554
:10139000513554F551E553255BF553E552355AF572
:1013A00052E5513559F551B460004003755138226A
:1013B000908000E5832AF58374982AF82418F9228E
:1013C000FA908000E5832AF58374982AF82418F9A6
:1013D000E7F58204667004D23BD322EFF007C32204
:1013E000FA908000E5832AF58374982AF82418F986
:1013F000E6F582677002D32206E0C3221213E040B2
:1014000009FF0582E0F5F0E796C322C083C082C0E1
:1014100086C0D0758600C0E030370BE547B546067C
:10142000D23BD0E0800D909800854782D0E0F0D28A
:10143000370547D0D0D086D082D08322C083C082E7
:10144000C086C0D0758600909800E546F582E546D6
:1014500004F546B54702C237E0D0D0D086D082D05E
:1014600083221214C1907FA57480F0907FA674A18E
:10147000F01214C9907FA57420F0907FA6E012149A
:10148000C9907FA57440C2AFF0907FA6E0FFD2AFB5
:10149000221214C1907FA57480F0907FA674A0F0F2
:1014A0001214C9907FA67407F01214C9907FA6E9A0
:1014B000F01214C9907FA57440F01214C11214F3F5
:1014C00022907FA5E020E6FC22907FA5E030E0FCA2
:1014D000221214C1907FA57480F0907FA674A0F0B2
:1014E0001214C9907FA67407F01214C9907FA574D6
:1014F00040F022907FA57480F0907FA674A0F01237
:1015000014C9907FA57440F01214C1907FA5E030FB
:03151000E1E122F4
:00000001FF
