:0300000002006695
:03000B00020DDB08
:03001300020DA536
:03001B00020EEDE5
:03002300020EEEDC
:03002B00020E249E
:03003300020EE1D9
:03003B00020F10A1
:03004300020100B7
:03005B00020EE6AC
:10006300020EEA7581C7E4F56CC25BF570F56FC2E9
:100073005EC25FC260756A00758600C2AFC2D3C23A
:0F008300D4C2D3C2D4C2ACC2AEC2E9C2AA410435
:017FE500009B
:10010000020F32FF020F7BFF020F55FF020FDBFFD2
:10011000020F9CFF020FDAFF021006FF021007FF1A
:10012000021008FF021009FF02100AFF02100BFF65
:1001300002100CFF02100DFF02100EFF02100FFF45
:10014000021010FF021011FF021012FF021013FF25
:10015000021014FF02101512010001000000404EB1
:100160000A0110010201020001090235000101002B
:10017000C0C80904000005FF000000070502034095
:100180000001070582034000010705040340000148
:10019000070506030800010705860308000104039C
:1001A0000904140353007400650069006E006200C6
:1001B0006500720067002E0353007400650069003B
:1001C0006E00620065007200670020004D0049006B
:1001D000440045005800200038002000280072002C
:1001E000320029001E034D0049004400450058001C
:1001F0002000380020005500700064006100740089
:1002000065000000757700757801757900757C7858
:10021000907849E0D2E0F0907F937404F0907F965C
:100220007400F0907F9C7438F0907F94740CF09080
:100230007F97E4F0907F9D7410F0907F9574C3F0E9
:10024000907F987410F0907F9E7414F090784174B1
:1002500000F090784374FFF09078457400F0907847
:100260004774FFF07814740090DD00F0A3D8FC9080
:10027000DD0174FFF0C26FC2707D1F7EE9121A7536
:10028000121A0FF57FC275209520D275757F0690E2
:10029000015F744EF0A3740AF0A37420F0A37410ED
:1002A000F09001667403F03095FD1217A6C248C2A3
:1002B00049C24AC259907F92E4F0907FA17401F044
:1002C000907FDEE0D2E2D2E6F0907FDFE0D2E2D2B1
:1002D000E4D2E6F0907FAFE0D2E0F0907FB9E4F0B6
:1002E000907FC1E4F0901041E5838582F0907FB269
:0E02F000F0A3E5F0F043D820907FAB74FFF050
:1002FE00907F95E044C0F0907FAFE04401F0E4F5CC
:10030E0023F524F525C252C253C254C25AE58EC2F9
:10031E00E0C2E1C2E2F58E907F92E030E30AE58E14
:10032E00D2E0C2E1C2E2F58E907FACE0C2E2C2E65C
:10033E00F0907FADE0F07400F526F573F574D2639E
:10034E00D264C265C2667579FF907FAEE0441DF03F
:10035E00D2E8D2AF204A65907FD6E054FBF0E0445D
:10036E0008F0E04402F07FDC7E05120D49907F928A
:10037E00E030E3077FDC7E05120D49907FAB74FF02
:10038E00F0907FA9F0907FAAF05391EF907FD6E086
:10039E0054F7F0E04404F07F107E007D00204A1CEC
:1003AE00DDFBDEF9DFF7907F92E030E30F7F107E0A
:1003BE00007D00204A06DDFBDEF9DFF7C26DC26765
:1003CE00758C38758A38E58954F24402F589E588CA
:1003DE00F588E58EC2E3F58ED2A9C2AA907F95E08C
:1003EE00D2E3F0C28FD28A7456F598E587D2E7F53C
:1003FE00877456F5C0D2DF758DF4758BF4907F92AD
:10040E00E030E308E587C2E7F587C2DFE589542FC0
:10041E004420F589E58ED2E4F58EC2ABD28ED2AEF3
:10042E00D2AC75CA4675CBFF907F92E030E306756D
:10043E00CA8C75CBFE75C800E58EC2E5F58E75507B
:10044E0003C262D2BDD2ADE5C85400F5C8D2CA7D92
:10045E001F7EEB121A75121A0F90FE0074C9F0A3CC
:10046E00EFF0A3E4F012173975B00175B100907F6B
:10047E0096E0D2E4D2E5F0D26EC26A12169AD2CAD1
:10048E00D2AAD28C304A05120AA6C24A3048171296
:10049E000D6B5012C248120D6D204907907FD6E0A9
:1004AE0020E7F3120D7D307305120A04C273306D0E
:1004BE001EC26D3075105380CFD57F08121ACD43F2
:1004CE008030C275C262790878C0760008D9FB10F8
:1004DE006202A142A9B0780890FEC0E06011D5E09A
:1004EE0007C9C2E003C9800AC9D2E003C98003C9A3
:1004FE0003C9F0A3D8E5E9FAA9B1780890FECAE0DD
:10050E006011D5E007C9C2E003C9800AC9D2E00371
:10051E00C98003C903C9F0A3D8E5206A13E9F430F2
:10052E006E08A2E0EA92E0FA8006A2E7EA92E7FA03
:10053E0089B18AB0D579677579FF206A2920972409
:10054E00206C23E4106E04D26E74FF90DD01F090E7
:10055E00DD0FF4F0740190FEC0F090FEC7F0D26291
:10056E00D26C8002C26C20952574FF657C602FD5FD
:10057E007C2C209714C284C285784E790A7A107B1F
:10058E001012111A757CFF8015757C08801074FF8F
:10059E00657C6007C37477957C4000757C78305914
:1005AE0005C259121875304B031210FB304C031252
:1005BE0011DD75690074B02569F8E6F521C255C2E2
:1005CE0056E82408F8E6F56BB52100400785216B47
:1005DE00F521D255E5217003020874C208200C15CE
:1005EE00300A030206D23009030207C0300B0302A1
:1005FE000814020874AD69ED232323FEED30E212D8
:10060E00B4060620631D020874B4070620641402A3
:10061E000874904045E58254C74EF582E020E5030C
:10062E00020874E5693055022408FA908000E583CB
:10063E002AF58374802AF82418F9E6F58267700586
:10064E00D25602085C06E0C34008FF0582E0F5F0D2
:10065E00E7967037D256E56930E21EB4060C8F73FA
:0D066E00C263206502D29902085CB4070C3B
:10067B008F74C264206602D2C102085C904040E5D0
:10068B008254C74EF582EFF01209F802085CE56957
:10069B0030E21CB4060B8F73C263206502D29980C3
:1006AB001AB4070B8F74C264206602D2C1800C90FF
:1006BB004040E58254C74EF582EFF01209F820F75F
:1006CB00030208740207F9AD69ED232323FEE569E4
:1006DB0030E212B4060620631D020874B40706202C
:1006EB006414020874904045E58254C74EF582E0CD
:1006FB0020E503020874E5693055022408FA90805E
:10070B0000E5832AF58374802AF82418F9E6F5822C
:10071B00677005D25602085C06E0C34008FF0582ED
:10072B00E0F5F0E7967002D256EFB4F800501D7466
:10073B00C02569F8EFB4F004D20D800F54F0B4F07B
:10074B0005C20DE48005E66F604CEFF6E56930E21B
:10075B001CB4060B8F73C263206502D299801AB446
:10076B00070B8F74C264206602D2C1800C9040408C
:10077B00E58254C74EF582EFF090FECAED2582F567
:10078B0082E57BF030560302085C20F761D20CC285
:10079B000AC20B02085C30560302085C20F74FD2EA
:1007AB000CC20AC20B74B025693055022408F8E557
:1007BB0021F6020603E5693055022408FA90800001
:1007CB00E5832AF58374802AF82418F98682E0F5EC
:1007DB00660582E0F565C2A9C3E5519565E55295BD
:1007EB0066D2A930E503020851060602082BE5F094
:1007FB00B4F4070675210202084AB4F706752124E2
:10080B0002085C75210402084AE569305502240888
:10081B00FA908000E5832AF58374802AF82418F96E
:10082B00E6677005D25602085CC2568682E0F5F088
:10083B00C20B20E7B9D20CC20A12087F0205C3C251
:10084B000812087FC256B255E56B85216BF521D294
:10085B0008305606E5215420F52174B02569305532
:10086B00022408F8E521F680000569E56964086053
:10087B00110205C374B025693055022408F8E5212F
:10088B00F622907FC0E020E103121016907FD0E09B
:10089B0020E103121032907FB8E020E103120965CA
:1008AB00206A03121753E526540345716003121295
:1008BB0064205F51907FC8E020E14A5391EF907F15
:1008CB00AA7404F0907FC9E0F5F05403702FC26155
:1008DB00907DC0E0FAC4540FCA540FC0E0A315F0CA
:1008EB00E0FBA315F0E0FCA315F0E0FDA3D0E0C006
:1008FB0083C0821215F1D082D083D5F0D6A261923B
:10090B005F907FC9F020600A907FCCE020E103125A
:10091B0009AB305F1578807998C25FC3E796B4C98D
:10092B00004002D25F0809B898F1306015789879C9
:10093B00B0C260C3E796B4C9004002D2600809B8E0
:10094B00B0F1020492904054E0A25F92E1F090402B
:10095B0064E0A26092E1F00204925391EF907FA9C0
:10096B007404F0E4306A32C2AFE4F54E304E2A9094
:10097B009800E54CF58204F54CB54D02C24EE0C033
:10098B00E0E54E907E00854E82D0E0F0054ED2AF72
:10099B000000C2AFE54EB440D3907FB9F0D2AF2286
:1009AB005391EF907FAA7410F0907FCDE0F5F05447
:1009BB00037031C261907CC0E0FAC4540F2408CAA2
:1009CB00540FC0E0A315F0E0FBA315F0E0FCA3155A
:1009DB00F0E0FDA3D0E0C083C0821215F1D082D02D
:0D09EB0083D5F0D4A2619260907FCDF02200
:1009F80090FECAED2582F582E57AF022C2A2909A8D
:100A080001E024C8F8A3E013E8B313C313FAF9907C
:100A18009A00E075F064A429500274FFF8E5F060CC
:100A28000278FFE8E57D6854F8700AC274E57D280D
:100A380013887D801830740C909A04E02813F57D93
:100A4800C2748009D274909A04E8F0E57D2075217B
:100A5800957FF950057400F98008C3941F4003740A
:100A68001FF9E99000E02582F582E5833400F583DB
:100A7800E0F57AE9901ADA2582F582E5833400F503
:100A880083E0F57B227D1F7EEC7A007C14121A75B8
:100A9800121A0F7583DD8A82F00A0EDCF022907F2D
:100AA800E9E0B40605120AF5803BB40A05120B1BEF
:100AB8008033B40B05120B28802BB40905120B2FB9
:100AC8008023B40805120B36801BB40005120B43B3
:100AD8008013B40105120C4D800BB40305120C5E93
:100AE8008003120C6F907FB4E04402F022907FEBF9
:100AF800E0B40103020B0EB40203020B7AB4030341
:100B0800020BFA020D347401907FD4F07457907F71
:100B1800D5F022907F00E53EF0907FB57401F02279
:100B2800907FEAE0F53E22907FEAE0F53F22907F51
:100B380000E53FF0907FB57401F022907FE8E0B4C3
:100B48008003020B5CB48103020C72B48203020CB2
:100B580080020D34A249E43323FF907F9AE0A2E695
:100B6800B3E4334F907F00F0E4A3F0907FB57402B4
:100B7800F022907FEAE0FFE4FE907F9AE030E608FA
:100B880090017174C8F080069001717419F075387D
:100B980001753969AA38A939900001120D3C64021F
:100BA8007034EEFD0E8FF0B5F003020BE4900002F6
:100BB800E5822539F582E5833538F583E493F5F048
:100BC800A3E493F53A85F03BE53B2539F539E53A59
:020BD8003538AE
:100BDA00F53880BE7B007A0079008A348935EA4983
:100BEA00600BEA907FD4F0E9907FD5F022020D34B1
:100BFA00907FEAE0FF8F40E4F54175380175399E30
:100C0A00AA38A939900001120D3CB4031EE541052A
:100C1A0041B54003020C3BAA38A939900000120DD5
:100C2A003C29FFE43AF5388F3980D57B007A007980
:100C3A0000EA49600BEA907FD4F0E9907FD5F02270
:100C4A00020D34907FE8E0B40003020CABB4020357
:100C5A00020CBA22907FE8E0B40003020CFBB40253
:100C6A0003020D0A22020D34E4907F00F0A3F090F3
:100C7A007FB57402F022907FECE0F45480C4540FE4
:100C8A00FFE054072F25E024B4F582E4347FF5838E
:100C9A00E054FD907F00F0E4A3F0907FB57402F079
:100CAA0022907FEAE0B40104C2498003120D342283
:100CBA00907FEAE07037907FECE0F45480C4540FE0
:100CCA00FFE054072F25E024B4F582E4347FF5834E
:100CDA00E4F0907FECE05480131313541FFFE054A8
:020CEA00072FD2
:100CEC00907FD7F0E04420F0020CFA120D342290E1
:100CFC007FEAE0B40104D2498003120D3422907FC4
:100D0C00EAE07020907FECE0F45480FFC4540FFFB5
:100D1C00E054072F25E024B4F582E4347FF5837486
:100D2C0001F08003120D3422907FB4E04401F022D4
:100D3C00E58229F582E5833AF583E49322C086C0E7
:100D4C0083C082C0E0E4F58690FDA5A3E5824583CF
:100D5C0070F9D0E0D082D083D086DFE1DEDF22D301
:100D6C0022907FD6E04480F0438701000000000011
:100D7C0022907FD6E030E720E04401F07F147E0023
:100D8C00120D49907F92E030E3077F147E00120D24
:100D9C0049907FD6E054FEF022C0D0C0E0C082C0A3
:100DAC0083C086758600909A00C28CE551F0A3E54D
:100DBC008AF0A267D28CA3E433F0A3A271E433F0DF
:100DCC00C28FD273D086D083D082D0E0D0D032C044
:100DDC00D010673ED267C0E0E5512401F551501E9A
:100DEC00E55204F55230E602D26D657E30E509D24B
:100DFC00A230A3FDC2A2C27185527E53523FE56060
:100E0C002555F560E55F3554F55FE5533400F58CF9
:100E1C00D0E0D0D032D0D032C0D0C2CFD550F6A294
:100E2C0076B392765002D262C0E0C083C082C08694
:100E3C00E4F586D2D4755003FD857123ED2323236D
:100E4C00FE904045E58254C74EF582E030E02A53CF
:100E5C0082F8E0FCED2410FA2480F58374802AF8E3
:100E6C002418F9E7F58204667004D2528005ECF080
:100E7C00078000D2185002D2520DE52303F523BD92
:100E8C0006BAE5230303F523852371800BD086D0A6
:100E9C0082D083D0E0D0D032306F1AE599FC909696
:100EAC0000789679AEE7F582046670028003ECF068
:100EBC0007D230C26F30701AE5C1FC90970078975A
:100ECC0079AFE7F582046670028003ECF007D2314B
:100EDC00C270020E9953D8EF323253917F32C2DB7B
:100EEC003232C0D0D271109906109813020F0D2017
:100EFC006309D265857399D26380EEC26580EAD2AC
:100F0C006FD0D032C0D0D27110C10610C013020FF6
:100F1C002F206409D2668574C1D26480EEC26680CB
:100F2C00EAD270D0D032C0D0C0E0C083C082C086BC
:100F3C00758600D24A5391EF907FAB7401F0D08646
:100F4C00D082D083D0E0D0D032C0D0C0E0C083C03B
:100F5C0082C086758600E4907FC4F05391EF907F39
:100F6C00AB7404F0D086D082D083D0E0D0D032C025
:100F7C00D0C0E0C083C082C0867586005391EF90CC
:040F8C007FAB7402C1
:100F9000F0D086D082D083D0E0D0D032C0D0C0E0B4
:100FA000C083C082C086758600E4907FC7F0907FC2
:100FB000C9F0907FCBF0907FCDF0907FCFF0907F05
:100FC000D1F0907FD3F05391EF907FAB7410F0D0BD
:100FD00086D082D083D0E0D0D03232C0D0C0E0C042
:100FE00083C082C086758600E530600415308002BB
:100FF000D2485391EF907FAB7408F0D086D082D066
:1010000083D0E0D0D03232323232323232323232E7
:101010003232323232323077185391EF907FA974E6
:1010200040F0C277907FC17401F0907C00E582F5BA
:101030004F225391EF907FAA7440F0907FD1E0F55A
:1010400047D24B22C0D0C083C082C086758600C004
:10105000E0E54EB441004006D253D0E0800B907ED4
:1010600000854E82D0E0F0054ED086D082D083D06D
:10107000D022C0D0C083C082C0E0C086758600C0C8
:10108000E0E54FB40802D252907C00854F82D0E058
:10109000F0054FD086D0E0D082D083D0D022C0D00F
:1010A000C0F0C083C082C086758600F5F0304D095F
:1010B000E54BB54A04D252800D909900854B82E5EC
:1010C000F0F0D24D054BD086D082D083D0F0D0D076
:1010D00022C0D0C0E0C083C082C0867586009099CF
:1010E00000E54AF582E54A04F54AB54B02C24DE0F7
:1010F000D086D082D083D0E0D0D022E547146003E0
:10110000021180907BC0E0700E784E790A7A207BC5
:101110001012111A0211D60211D6907FD6E044089F
:10112000F0E4F582E054FBF0E4F582E04408F0E0FE
:101130004402F07FDC7E05120D49907F92E030E39F
:10114000057E05120D49907FAB74FFF0907FA9F0EA
:10115000907FAAF05391EF90015FE8F0A3E9F0A32C
:10116000EAF0A3EBF0121739907FD6E054F7F0E4E1
:10117000F582E04404F0907F96E0D2E5D2E4F022DC
:10118000907BC0E0F5851547A3E0F5841547A3E5FE
:1011900047700BD24C8585488584490211D6E0F909
:1011A0000212050586E059F00586D54704D2528023
:1011B00025A3E0F90586E049F0A30586A3D547DE1F
:1011C00090FE02E06010F97D1F7EEB121A3E90FE49
:1011D00001E9F0A3E4F0C24B907FD1F022C2AF85C9
:1011E0004883854982E0E548B47F0EE549B49A0911
:1011F000E0B2E7A2E792E68001E0907C00F0C24C0A
:10120000D277D2AF22E585B44099E5845438030300
:101210000304F8FF1547A3E0FAE5B023FCE5B1238A
:10122000FBEB03FBEC03FCD8F8E9A2E0CB82E092F5
:10123000E0CBA2E1CC82E092E0CCEAA2E0CB72E08B
:1012400092E0CBA2E1CC72E092E0CCEB03FBEC03AA
:10125000FCEB23FBEC23FCDFF88BB18CB0A3021179
:10126000BD0211A37D00C2AD857124757100D2ADA0
:10127000ED241030204CC2ADFA908000E5832AF5B1
:101280008374802AF82418F9E6F582677007D3C2C0
:1012900020D2AD802D06D220E0C0E090FEC0ED252A
:1012A00082F582D0E0C0E0B4F800E57A4002E57B48
:1012B000F0E667D2ADD25D6002C25DD0E08D431230
:1012C000136DE52503F525E52403F5240DBD06A0E2
:1012D000E524C2E003C2E003F524C2AD4571F57117
:1012E000D2AD30303D909600789679AEC2ADE6F53D
:1012F00082677007D3C230D2AD802706E0C0E0908D
:0D130000FEC6D0E0C0E0B4F800E57A40027F
:10130D00E57BF0E667D2ADD25D6002C25DD0E075DF
:10131D00430612136DE52503F52530313D909700F9
:10132D00789779AFC2ADE6F582677007D3C231D237
:10133D00AD802706E0C0E090FEC7D0E0C0E0B4F875
:10134D0000E57A4002E57BF0E667D2ADD25D600242
:10135D00C25DD0E075430712136DE52503F5252217
:10136D00F54420E7082028051214AD8003121384DC
:10137D003050031214FE229000A0E544C4540F0215
:10138D001726754204754502C22802147475420869
:10139D007545020214727542097545020214727583
:1013AD00420A75450202147275420B75450202140C
:1013BD007275420C75450102147275420D75450129
:1013CD0002147275420E7545020214729000C0E54A
:1013DD0044540F02172675420475450202147475A4
:1013ED0042027545010214727542037545020214DD
:1013FD0072754202754501021472754203754502FC
:10140D00021472D25075420F754500021472D250FB
:10141D0075420F754500021472D25090FF10E5828F
:10142D002543F582E030280BC2287542057545002D
:10143D00021474700C75420675450112148B02145A
:10144D00E475420775450012148B0214F10215A5BF
:10145D000215A50215A50215A50215A50215A502D1
:10146D0015A50215A5C22890FF00E5822543F5823A
:10147D00E544F090FF10E5822543F582E4F090FFFE
:10148D0018E5822543F582E545F090FF08E58225B4
:10149D0043F582E542F0227544FF1214E40214F183
:1014AD0090FF18E5822543F582E0602AF54590FF0F
:1014BD0010E5822543F582E0F546C083C0827005B4
:1014CD001214E480031214F1E54604B54503D2501D
:1014DD00E4D082D083F02290FF20E5822543F5826F
:1014ED00E544F02290FF28E5822543F582E544F09E
:1014FD0022E5436009AE43E52223DEFDF522E52218
:10150D0030E025E543C444031219B874F41219B838
:10151D00C2ADC2A9E551F56EE552F56DD2A9D2ADB8
:10152D001219B8E56E1219B890FF08E5822543F53A
:10153D0082E0F5F0C0E0E543C445F01219B8E5F0DE
:10154D00B40402C25DE522A25D92E0F522E543609E
:10155D0009AE43E52203DEFDF52290FF00E582256D
:10156D0043F582E01219B890FF20E5822543F582FC
:10157D00E01219B890FF28E5822543F582E0121993
:10158D00B890FF10E5822543F582E4F0C250C228E1
:10159D00D0E0B40402D22822E543C444031219B8A2
:1015AD0074F41219B8C2A9E551F56EE552543FF520
:1015BD006DD2A91219B8E56E1219B8E543C4440FDE
:1015CD001219B8E5441219B874FF1219B874FF0254
:1015DD0019B80000031707010307070707070303DF
:1015ED000709E575C25C9015DF93F520C2AF300396
:1015FD004FEBB4F912751900E5182401543FF51895
:10160D00D259D278021697EBB4FD2CE4C28CC2CA23
:10161D00C2AFF518F519F552F55112169A1217A613
:10162D00D284D28575B00075B100D26AD278D28CD1
:10163D00D2CAD2AF021697B4F50612173902169711
:10164D00908000E5832AF58374802AF82418F9C365
:10165D00E796B4C9004002D261300009EBFF1219C0
:05166D007D725C925C3F
:10167200300109ECFF12197D725C925C300209EDB7
:10168200FF12197D725C925C74B02AF8E6541E70E7
:1016920004E6D2E3F6D2AF22C294D2A47F067E0041
:1016A200904043E58254C74EF5827483F0904040E7
:1016B200E58254C74EF5827418F0904041E5825499
:1016C200C74EF5827400F0904043E58254C74EF550
:1016D200827403F0904040E58254C74EF582E09058
:1016E2004044E58254C74EF582E4F0EE2408FEDF62
:1016F200AFE47F64D5E0FDDFFB22ED232323FE90E0
:101702004045E58254C74EF582E022904040E58292
:1017120054C74EF582E022904040E58254C74EF510
:1017220082EFF022C0F023F5F093C5F00493F58226
:1017320085F083D0F0E473D284D285907841E4A21C
:101742006E92E0B392E7F0907845E4F0C26AC27814
:1017520022204E0122909800E54CF5822404F54C9B
:10176200B54D02C24EE0F575A3E0FBA3E0FCA3E099
:10177200FD90DD00E575C4540FC3332582F582E088
:10178200F528A3E0F527E575540FF575EB64F460D1
:10179200127A007E08E52703F52730E7031215EFDA
:1017A2000ADEF222756700756800856765856866DE
:1017B200E4F51AF51BF51CF51DF51EF51FF555F59B
:1017C20054755338F556F557F558F559F55AF55BF2
:1017D200F55CF55D756304756406F55FF56075216A
:1017E20000756900E47F1078B0F608DFFC78807934
:1017F20030E4F608D9FCF54CF54DC24EF54AF54BEE
:10180200C24DF547C24BC24CC277F547F54EF54F74
:101812007522FF757100D268D269790890FF00E4E1
:10182200F0A3D9FC790878C0F608D9FC790890FFB2
:1018320010F0A3D9FC790890FF18F0A3D9FC79081D
:1018420090FF20F0A3D9FC790890FF287400F0A340
:10185200D9FA752500C251C273C274790890FEC0CC
:10186200E4F0A3D9FC790890FECAE4F0A3D9FC7590
:101872007A7822C2ADC2A9C3E5199551F51BE518C4
:101882009552543FD2A9D2AD30E50244C0F51C5462
:10189200FC600824046004E518E5197563047564A6
:1018A20006E51C6005046011801C74C8B51B00406D
:1018B20015756309756408800D7437B51B005006F1
:1018C200756309756408E51CF556A2E59257851BF8
:1018D20057851A58755900AE63A257E55613F55647
:1018E200E55713F557E55813F558E55913F559DE41
:1018F200E8C3755D00E51A951DF55CE51B951EF5BF
:101902005BE51C951FF55AA2E59257851A1D851BAA
:101912001E851C1FAE64A257E55A13F55AE55B13E8
:10192200F55BE55C13F55CE55D13F55DDEE8E55519
:101932002558F555E5543557F554E5533556F553C5
:08194200E555255DF555E5545E
:10194A00355CF554E553355BF553B46000400375D7
:10195A00533822908000E5832AF58374802AF8247C
:10196A0018F922FA908000E5832AF58374802AF810
:10197A002418F9E7F58204667004D252D322EFF0F4
:10198A0007C322FA908000E5832AF58374802AF837
:10199A002418F9E6F582677002D32206E0C3221200
:1019AA00198D4009FF0582E0F5F0E796C322C0834E
:1019BA00C082C086C0D0758600C0E0304E0BE54DAF
:1019CA00B54C06D252D0E0800D909800854D82D059
:1019DA00E0F0D24E054DD0D0D086D082D08322C03E
:1019EA0083C082C086C0D0758600909800E54CF509
:1019FA0082E54C04F54CB54D02C24EE0D0D0D086FB
:101A0A00D082D08322121A9D907FA57480F0907F95
:101A1A00A674A3F0121AA5907FA57420F0907FA651
:101A2A00E0121AA5907FA57440C2AFF0907FA6E09D
:101A3A00FFD2AF22121A9D907FA57480F0907FA6E4
:101A4A0074A2F0121AA5907FA6EDF0121AA5907F43
:101A5A00A6EEF0121AA5907FA6E9F0121AA5907FB9
:101A6A00A57440F0121A9D121AAD22121A9D907F87
:101A7A00A57480F0907FA674A2F0121AA5907FA692
:101A8A00EDF0121AA5907FA6EEF0121AA5907FA586
:101A9A007440F0907FA5E020E6FC22907FA5E0301C
:101AAA00E0FC22907FA57480F0907FA674A2F012C9
:101ABA001AA5907FA57440F0121A9D907FA5E03078
:101ACA00E1E122E57AF57F7D1F7EE9A97F021A3ED0
:101ADA0001010101010102020202030304050607D2
:101AEA000C11161A2026282E394050646464646446
:1000A000138F138F138F138F138F138F138F138F40
:1000B000139A13A313AC13B513BE13C713D013D9DC
:1000C00013E313EC13F513FE14071410141B14267A
:1000D000145A145D1460146314661469146C146F5C
:1000E00064646E6E787878788C8C8C8CB4B4B4B48C
:1000F000B4B4B4B4C8C8C8C8DCDCDCDCFAFAFAFAB8
:00000001FF
